:020000040800F2
:10000000A00C002065010008470B0008FF0900084C
:10001000450B00087D050008BD1400080000000025
:100020000000000000000000000000007310000845
:100030000306000800000000070C00087510000807
:10004000BF140008050C000877100008E70E000830
:1000500071070008510E0008F9060008FD060008A7
:10006000FF0600080107000803070008ED05000867
:10007000EF050008F1050008F3050008F505000884
:10008000F7050008F905000811020008B914000876
:10009000BB1400087F05000881050008050700085B
:1000A000791000087F1000087D1000087B10000800
:1000B00081100008B5100008E5100008030A0008C8
:1000C000010A0008070A0008050A00086D10000868
:1000D0006F100008491200080513000807130008F4
:1000E000FB060008E50E0008B7140008ED10000834
:1000F000F3100008F1100008EF10000813020008C8
:10010000FD0800086B100008E710000871100008D7
:100110004512000847120008E9100008EB1000081B
:10012000FB050008FD050008FF05000801060008A2
:10013000DFF80CD000F05AF800480047911600088C
:10014000A00C0020EFF30980704780F30988704706
:10015000EFF30880704780F30888704740BA704713
:10016000C0BA7047004800473101000840EA010367
:100170009B0703D009E008C9121F08C0042AFAD25D
:1001800003E011F8013B00F8013B521EF9D2704721
:10019000D2B201E000F8012B491EFBD270470022C9
:1001A000F6E710B513460A4604461946FFF7F0FF76
:1001B000204610BD421E12F8013F002BFBD111F862
:1001C000013B02F8013B002BF9D17047421C10F8AB
:1001D000011B0029FBD1801A7047034611F8012B3F
:1001E00000F8012B002AF9D118467047064C074D3C
:1001F00006E0E06840F0010394E8070098471034F7
:10020000AC42F6D3FFF798FFCC160008EC160008B6
:100210007047704770B5104D0C6800237CB10078B2
:10022000432801D0632809D10C480124467806B937
:1002300044702868C82801DB2B6014700B60686864
:10024000B0F5A07F06DB6B6000F01AFC04A000F0A4
:10025000DBFCFEE770BD0000700400200000002001
:100260000A0DD4CBD0D0CAA7B0DC210010B500F065
:1002700017F800F059F8BDE8104000F0BDB810B50F
:1002800000F0FEFC00F060FC00F03AFB00F014FC13
:1002900000F013F800F05CF8BDE8104000F0E4B89E
:1002A00010B501218C070022204600F097FF204660
:1002B000BDE81040002100F020BF7FB501210846B5
:1002C00000F0AEFC4FF08045284600F021FF0024EE
:1002D000ADF8064040F2E730ADF80400ADF802405A
:1002E0004720ADF800006946284600F081FF1C2039
:1002F0008DF80C000A208DF80D008DF80E400120BD
:100300008DF80F0003A800F02BFC0021284600F018
:100310006DFF01221146284600F060FF01212846AA
:1003200000F0EBFE7FBD000010B5084C0021204618
:1003300000F0E3FE0021204600F058FF2046002296
:10034000BDE81040012100F049BF0000000400405A
:100350007FB50121022000F063FC194D284600F012
:10036000D7FE0024ADF8064042F6CF71ADF802404A
:10037000ADF80410ADF800406946284600F038FF9B
:100380001D208DF80C0006208DF80D008DF80E4014
:1003900001208DF80F0003A800F0E2FB00212846A1
:1003A00000F024FF00220121284600F017FF012160
:1003B000284600F09FFE0021284600F09EFE7FBDEB
:1003C0000004004010B5084C0021204600F00EFF4C
:1003D0000121204600F091FE20460122BDE8104098
:1003E000114600F0FBBE0000000400400149086017
:1003F00070470000380000202DE9F04115480178D1
:100400000129FCD1144C0021204600F083FF40F26A
:10041000277500222946204600F0DBFF40F22556D2
:1004200000223146204600F0D4FF40F22667002229
:100430003946204600F0CDFF2946204600F064FFF3
:100440003946204600F060FF31462046BDE8F041C5
:1004500000F05ABF3C0000200038014001494860CC
:10046000704700003C000020F0B587B0012144F245
:10047000040000F0EDFB284E304600F055FF6846C2
:1004800001F00EF800244FF4E1300090ADF8084080
:100490000C20ADF80640ADF80A00ADF804406946FE
:1004A000304600F0AFFF7015ADF8100001258DF853
:1004B00012501820194F8DF8130004A9384600F087
:1004C00051FAA802ADF810008DF8125004208DF8F2
:1004D000130004A9384600F045FA012240F22771C2
:1004E000304600F076FF012240F22551304600F000
:1004F00070FF25208DF814008DF815508DF81640EA
:100500008DF8175005A800F02BFB0121304600F0B4
:1005100001FF07B0F0BD00000038014000080140B5
:100520002DE9F041134F0C46B968096831B92CB177
:10053000B4F5836F02D83978012902D00020BDE8D4
:10054000F08110F8011B0C4E0546304600F0A4FF68
:1005500000213970B868621E026081802946801DC2
:10056000FFF704FE012240F22771304600F031FF10
:100570000120E4E73C00002000380140FEE770471E
:10058000704700000C4B187860B101280CD002288D
:100590000DD003280DD00020187008491B69064AA9
:1005A000881D1847064800E006481861F5E7064828
:1005B000FBE70648F9E7000000000020500000209B
:1005C0001502000805060008090A00080D0F0008BA
:1005D00010B50448FFF70AFFBDE810400248FFF7D6
:1005E0003DBF00002D120008E90E0008704770475B
:1005F0007047704770477047704770477047704743
:100600007047704770B50646012008600C461546D5
:100610000DA13046FFF7E1FD1BA13046FFF7CAFDF3
:100620001FA13046FFF7C6FD22A13046FFF7C2FDED
:100630002FA13046FFF7BEFD02202870304600F0A3
:10064000E3FA0020206070BD0D2A2A2A2A2A2A2ACD
:100650002A2A2A2A2A2A2A2A2A2A2A2A2A2A2A2AFA
:100660002A2A2A2A2A2A2A2A2A2A2A2A2A2A2A2AEA
:100670002A2A2A2A2A2A2A2A2A2A2A2A2A2A2A2ADA
:100680002A2A0D0A00000000312EB8FCD0C2D3A6E1
:10069000D3C3C7F8B3CCD0F2A3BB0D0A000000004F
:1006A000322ED4CBD0D0415050B3CCD0F2A1A30D38
:1006B0000A0000002A2A2A2A2A2A2A2A2A2A2A2A38
:1006C0002A2A2A2A2A2A2A2A2A2A2A2A2A2A2A2A8A
:1006D0002A2A2A2A2A2A2A2A2A2A2A2A2A2A2A2A7A
:1006E0002A2A2A2A2A2A2A2A2A2A2A2A2A0D0A00D1
:1006F000C7EBD1A1D4F13A007047704770477047FB
:10070000704770477047000070B5054640F6FF76A9
:10071000304600F0A1F8042813D10A4C206940F0BB
:10072000020020616561206940F040002061304690
:1007300000F092F8012804D0216941F6FD721140C1
:10074000216170BD0020024008490420CA68D20718
:1007500001D001207047CA68520701D502207047B6
:10076000C968C906FBD5032070470000002002407D
:10077000704700000248016941F080010161704743
:100780000020024001B50098810503D0012101EB52
:10079000902008BD800A08BD04490A6822F01002B2
:1007A0000A600A6802430A607047000000200240A5
:1007B000FFF7E0BF70B506460D460F2000F04CF87D
:1007C00004280FD1084C206940F0010020613580D9
:1007D0000F2000F041F8012804D0216941F6FE7293
:1007E0001140216170BD000000200240F8B50020DA
:1007F0000426009000F024F84FF47A50FFF7C2FF6F
:100800000446084D009807E005EB8020FFF77CFFC9
:1008100006460098401C0090A04201D2042EF3D05E
:10082000F8BD00000050000804490A6802F03802D0
:100830000A600A6802430A60704700000020024014
:1008400003480249416003494160704723016745FD
:1008500000200240AB89EFCD18B50346FFF774FFC7
:10086000FF2407E000940098401E0090FBD1FFF7A2
:100870006BFF5B1E012803D0002B00D1052018BDA3
:10088000002BEFD1FAE700002DE9F84301EB020855
:10089000009118490446042608EB0100FFF772FF97
:1008A000154DDFF850900746C9F10009286807E0A8
:1008B00009EB8020FFF728FF06462868401C2860C7
:1008C000B84212D2042EF3D00FE021880098FFF72F
:1008D00071FF208800990988884202D00020BDE875
:1008E000F8830098A41C801C009000998845ECD8DF
:1008F0000120F4E700B0FFF720000020704700005F
:1009000010B501217C2000F0A3F910484FF6FF71CB
:1009100001800021C17001460D4800F023F80B4909
:100920000C4800F01FF809490B4800F01BF8074974
:100930000A4800F017F80549094800F013F80021AB
:10094000BDE810407C2000F083B900003200002098
:1009500000080140000C014000100140001401405B
:1009600000180140F0B5CC78002204F00F03E40633
:1009700001D58C7823430C784FF00F0C4FF0010E0B
:10098000D4B105680E880EFA02F42640A6420FD1B3
:1009900096000CFA06F725EA070703FA06F5CE7863
:1009A0003D43282E00D14461CE78482E00D1046109
:1009B000521C082AE6D305600A88FF2A1CD944681D
:1009C000002202F108060EFA06F50E882E40AE420D
:1009D0000ED196000CFA06F7BC4303FA06F7CE7860
:1009E0003C43282E00D14561CE78482E00D10561C8
:1009F000521C082AE5D34460F0BD41617047FEE710
:100A0000704770477047704770B50C4609680029F9
:100A100018D000780025312802D0322811D10CE0FE
:100A20000A48094941610A4941600A49C1600A49C5
:100A300081600320107009A001E015700CA000F087
:100A4000E3F8256070BD00000050000800000020A1
:100A5000ED07000889080008B1070008310D0AC732
:100A6000EBD1A1D4F1D2AAB7A2CBCDCEC4BCFE00AB
:100A7000320D0AD4CBD0D0B3CCD0F22E2E2E000023
:100A800070B50A4D28680A490840B0F1005F0CD1E2
:100A9000FFF7ECFB6868074CE061A0612868FFF78E
:100AA0005AFBA069BDE87040004770BD00500008C7
:100AB0000000FE2F0000002038B501218C2000F03E
:100AC000C7F84FF40060ADF8000010258DF8035012
:100AD00002248DF8024069460748FFF743FF0120D2
:100AE000ADF800008DF803508DF8024069460348C8
:100AF000FFF738FF38BD000000080140000C01403E
:100B000001460D4A0D48062915D2DFE801F003061B
:100B1000090B0D104FF4006100E00221104608E0BF
:100B2000402106E0802104E04FF4807101E00121C2
:100B30000348FFF762BF704700080140001C0140F6
:100B4000000C0140FEE7704710B500214FF0006037
:100B500000F04EF8BDE810404FF4407000F03EB891
:100B6000F0B50F24C278017801264FF0E0273AB3A0
:100B7000184A1268457802F4E062C2F5E062120A8F
:100B8000C2F10403D44082789D4022402A431301DD
:100B90008A0721F00304D20E0F49934065182C6890
:100BA000FF2191408C430B401C432C60007800F0E7
:100BB0001F018E40400907EB8000C0F80061F0BDC6
:100BC00001F01F008640480907EB8000C0F88061F3
:100BD000F0BD00000CED00E000E400E00249084335
:100BE00002490860704700000000FA050CED00E0C3
:100BF000024A1140014302480160704780FFFF1F15
:100C000008ED00E07047704770B50546FFF7DEFA63
:100C100084B221462846FFF783FC0128F9D170BD34
:100C2000044A0029D16901D0014300E08143D16128
:100C30007047000000100240044A0029116901D0E9
:100C4000014300E081431161704700000010024041
:100C5000044A0029916901D0014300E08143916178
:100C60007047000000100240044A0029D16801D0FA
:100C7000014300E08143D160704700000010024052
:100C800010B500F031F84FF48034204600F0C6F87B
:100C900000F00EF913490128087022D11020FFF747
:100CA0007BFD0220FFF7C0FD002000F0ADF8002022
:100CB00000F0DAF8002000F0CDF84FF4E011204603
:100CC00000F0E2F8012000F0D9F8392000F07CF8BB
:100CD0000028FAD0022000F0E1F800F08DF8082892
:100CE000FBD110BD300000200B48016841F001012C
:100CF00001604168094A114041600168084A114099
:100D00000160016821F480210160416821F4FE0145
:100D10004160002181607047001002400000FFF830
:100D2000FFFFF6FE30B5224A5168224B11F00C014C
:100D300003D0042903D0082903D0036015E01E491D
:100D400012E05168022301F4701103EB91415368E2
:100D500013F4803F04D053689B0303D5174B02E084
:100D6000174B00E0144B5943016051680F2303EA0D
:100D70001111144B5C5C0168E14041605468072527
:100D800005EA14241C5D21FA04F48460546805EA21
:100D9000D4241B5DD940C1605268032303EA923218
:100DA000084B1B1F9A5CB1FBF2F1016130BD0000E2
:100DB0000010024000127A00001BB700808D5B001B
:100DC00000093D00BC160008034600205909094AE5
:100DD00001290AD002290AD0516A03F01F02012317
:100DE00093400B4200D0012070471168F5E7116A6B
:100DF000F3E70000001002400248406800F00C00D9
:100E00007047000000100240034A516821F0F001D1
:100E10000143516070470000001002400B490A680E
:100E200022F480320A600A6822F480220A60B0F557
:100E3000803F07D0B0F5802F03D1086840F4A02090
:100E400008607047086840F48030F9E700100240FD
:100E500070470000034A516821F4E061014351608A
:100E60007047000000100240034A516821F46051AD
:100E700041EAC00050607047001002400149086616
:100E80007047000000004242034B5A68084322F4B6
:100E90007C1210435860704700100240034A5168AA
:100EA00021F003010143516070470000001002402F
:100EB00030B50B4C40F2FF153120FFF785FF207055
:100EC0006068401C6060207810B96068A842F3D167
:100ED0003120FFF779FF002800D0012030BD00004D
:100EE0004800002070477047074A9188B1F5836F2A
:100EF00009D21168002906D191885318491C9180A4
:100F00009871FFF75FBA704750000020F0B5ADF25E
:100F10000C4D0C460746164640F204416846FFF762
:100F20003EF900250DF204436A4621463846CDF8C5
:100F3000045400F0C5FA144CB0F1FF3F18D001285A
:100F400008D0022803D16068002800D080470DF245
:100F50000C4DF0BDE3682BB1DDF80404616982B289
:100F6000684698476069DDF8041408446061EEE75C
:100F7000A06800B180476560E560A560357003A09A
:100F8000FFF742FEE3E70000000000200D0AD4CB8B
:100F9000D0D0B3CCD0F22E2E2E0000002DE9F04799
:100FA0008C4692460178089A994601290BD002296D
:100FB0000BD0042917D0032915D018290DD04FF0D4
:100FC000FF30BDE8F087802501E04FF4806541786F
:100FD00091420AD06FF00100F3E74078182802D060
:100FE0006FF00500EDE70020EBE78178D243D2B245
:100FF000914202D06FF00200E3E7691D8C4502D0F8
:101000006FF00300DDE700F1030229464FF0000313
:1010100041F221074FF6FF7810E012F8014B83EA06
:10102000042308241E0403D587EA43039BB201E08E
:1010300008EA4303641E2404240CF3D10C00A1F13C
:10104000010189B2E9D100EB0C0131F8021C49BA67
:10105000994201D0601FB4E7C11C2A465046FFF7F1
:1010600085F80120C9F80050ABE77047704770471A
:1010700070477047704770477047704770477047B8
:1010800070B501218D070024284600F09BF8012847
:101090000DD10121284600F02DF8054850F8241004
:1010A000491C40F82410641CA4B2042CF6D370BD73
:1010B0007004002010B5094C0121204600F082F890
:1010C00001280AD10121204600F014F804480068E4
:1010D000002802D0BDE81040004710BD00040040C9
:1010E000380000207047704770477047704770475E
:1010F00070477047C943018270470029018802D0B8
:1011000041F0010102E040F2FE32114001807047DF
:101110002A4A10B5811A1315D41490423BD010DC22
:10112000B0F1804F22D02649401826D098422BD0CB
:10113000A04241D101210820FFF77EFD00210820B7
:1011400036E099422ED0B1F58E3F0DD0B1F5923FE9
:1011500032D101214C032046FFF786FD2046BDE831
:1011600010400021FFF780BD0121F4E7012108466E
:10117000FFF762FD002101201AE001210220FFF7A4
:101180005BFD0021022013E001210420FFF754FD44
:10119000002104200CE001211020FFF74DFD00216B
:1011A000102005E001212020FFF746FD002120202E
:1011B000BDE81040FFF740BD10BD0000001000402A
:1011C00000FCFFBF02460020138A92890B4202EA0C
:1011D000010202D0002A00D001207047002A828933
:1011E00001D00A4300E08A438281704781847047BE
:1011F000028802F08F020280CA884B881A43038853
:101200001A4302808A8882850A88028501228282A6
:10121000044A904202D0044A904201D1097A0186E0
:1012200070470000002C01400034014010B5FFF76A
:101230007BF80348818801600021818010BD000097
:1012400050000020704770472DE9F0412B4D40F2CF
:1012500027773946284600F09DF8294C40F226664B
:10126000012814D03146284600F094F878B331466E
:10127000284600F049F800223146284600F0A9F837
:10128000A1680020086001202070BDE8F081394687
:10129000284600F039F8A068016861B18188831D93
:1012A0004A1C8280C95C284600F0F6F8A0680168F4
:1012B000491E0160E9E700223946284600F089F816
:1012C00031462846BDE8F041012200F082B840F2E4
:1012D00025563146284600F05DF80028D5D0314625
:1012E000284600F011F8284600F0D2F86168C0B234
:1012F0000029CAD0BDE8F04108470000003801408D
:101300003C000020704770470A0A01219140C94300
:10131000018070470029818902D041F4005101E029
:1013200021F4005181817047184A10B5811A1315B4
:1013300090421BD007DC1649401814D0984223D1A4
:101340000121040217E0994213D0B1F56C4F1BD173
:1013500001218C032046FFF787FC2046BDE81040A2
:101360000021FFF781BC01214C0404E00121CC04E1
:1013700001E001210C052046FFF75EFC2046BDE898
:1013800010400021FFF758BC10BD0000004C004089
:1013900000BCFFBF70B501F01F0501260024C1F39A
:1013A000421306FA05F2012B0FD0022B0FD0838ACD
:1013B0004FEA11210088134206FA01F600EA0600FE
:1013C00001D000B10124204670BD8389F0E7038A73
:1013D000EEE710B5C1F3421301F01F040121A14053
:1013E000012B07D0022B07D01430002A026805D049
:1013F0000A4304E00C30F8E71030F6E78A43026055
:1014000010BD000030B50446008A85B00D464CF68C
:10141000FF710840E98801432182A0894EF6F3114B
:101420000840A9882A8911436A8902431143A1818E
:10143000A08A4FF6FF410840A9890143A18268466E
:10144000FFF770FC1148844201D1039800E0029834
:10145000642200EBC00101EB001029686FF0180551
:101460008900B0FBF1F0B0FBF2F109010B096B430D
:1014700000EB8300322303EB0010B0FBF2F000F02E
:101480000F000843208105B030BD00000038014046
:101490008088C0F308007047C1F30801818070475D
:1014A0004FF41651016000218180C18001810C221E
:1014B000428181817047704770477047FEE77047EF
:1014C0002DE9FF4F5B4C0E46002522785A4981B02A
:1014D0009C464FF0040A4FF0010B4FF47A782F46E8
:1014E000052A0DD2DFE802F0030D46559000676033
:1014F000A760677084F800B0C868002800DBCF6080
:101500007EE08946C968414509DBC9F80C70494A43
:1015100048490832432000F091F8277070E03168A4
:1015200000296DD0227900926346039AFFF736FDB9
:1015300040B2376078B1012816D10398C07838B12D
:101540000220207005466068401C6060677051E0B2
:1015500084F800A04EE0607808B1676041E0354A49
:1015600034490832152040E0324A67700832314968
:1015700015202DE003202F4A207008322D49062027
:1015800000F05CF82B4A2B490832432000F056F853
:1015900036E08946C968414504DBC9F80C7084F817
:1015A00000A02DE0316859B3227900926346039A76
:1015B000FFF7F4FC40B2376068B10128D4D160680D
:1015C0001C4A401C606001256770083219490620DA
:1015D00000F034F80EE060780028C0D0676084F82E
:1015E00000B0144A13490832062000F027F860784A
:1015F000401C6070D9F80C104846002900DBC76019
:1016000005B02846BDE8F08F0A4A0A49083206208C
:1016100000F014F8074A07490832182000F00EF8C5
:10162000044A04490832182000F008F84FF0FF354A
:1016300073E70000240000207004002037B5144632
:101640000D4601216846FEF76BFF0128F9D19DF890
:101650000000062809D0152806D12068401C20600B
:10166000052801DD042028703EBD002020603EBD1D
:1016700002E008C8121F08C1002AFAD1704770475B
:10168000002001E001C1121F002AFBD170470000B9
:1016900008490020401C8842FCD9FEF7F0FDFEF707
:1016A00097FFFFF7CDF80520FFF72AFAFEF76AFF4C
:1016B000FCE70000C0C62D00020406080000000080
:1016C000010203040102030406070809EC160008DE
:1016D0000000002050000000701600083C170008B1
:1016E00050000020500C0000801600080000000090
:1016F00000000000000000000000000000000000EA
:101700000050000800000000000000000000000081
:1017100000000000000000000000000000000000C9
:1017200000000000000000000100000000000000B8
:0C17300080040020000000000000000009
:0400000508000131BD
:00000001FF
