:020000040800F2
:1000000008210020D101000887100008990E00087F
:1000100085100008D90800088920000800000000A9
:100020000000000000000000000000006919000846
:100030006F09000800000000471100086B19000854
:100040008B200008451100086D19000817140008DE
:100050004D0C000881130008C90A0008CD0A0008E9
:10006000CF0A0008D10A0008D30A0008590900087D
:100070005B0900085D0900085F09000861090008C4
:1000800063090008650900082F050008B11D000874
:10009000B31D0008DB080008DD080008D50A0008C9
:1000A0006F19000875190008731900087119000804
:1000B00079190008AD190008DD190008C30E000801
:1000C000C10E0008C70E0008C50E0008771500080D
:1000D00079150008411B0008FD1B0008FF1B0008E4
:1000E000CB0A000815140008AF1D0008E519000828
:1000F000EB190008E9190008E719000831050008A4
:10010000670D000875150008DF1900087B15000849
:100110003D1B00083F1B0008E1190008E319000817
:1001200067090008690900086B0900086D090008E3
:1001300000F002F800F03CF80AA090E8000C8244BD
:100140008344AAF10107DA4501D100F031F8AFF29A
:10015000090EBAE80F0013F0010F18BFFB1A43F0A5
:10016000010318475827000078270000103A24BFE1
:1001700078C878C1FAD8520724BF30C830C144BF0C
:1001800004680C607047000000230024002500264E
:10019000103A28BF78C1FBD8520728BF30C148BFEA
:1001A0000B6070471FB502F063F81FBD10B510BD9E
:1001B00000F083F91146FFF7F5FF02F03DF800F07B
:1001C000A1F903B4FFF7F2FF03BC00F0A9F90000A6
:1001D0000348004703480449044A054B70470000A0
:1001E000310100080819002008210020081D002006
:1001F000081D002030BF704720BF704740BF7047C8
:10020000BFF36F8F7047BFF34F8F7047BFF35F8FA0
:10021000704701DF7047EFF31480704780F3148854
:10022000BFF36F8F7047EFF30980704780F3098841
:100230007047EFF30880704780F30888704762B614
:10024000704772B67047EFF31080704771B6704711
:1002500061B67047EFF31380704780F311887047E1
:10026000EFF31280704740BA704700BA7047401EE3
:10027000CAB210F8011F8A4202D00029F9D1002029
:10028000704740EA010310B59B070FD1042A0DD334
:1002900010C808C9121F9C42F8D020BA19BA884267
:1002A00001D9012010BD4FF0FF3010BD1AB1D307A6
:1002B00003D0521C07E0002010BD10F8013B11F8DC
:1002C000014B1B1B07D110F8013B11F8014B1B1B05
:1002D00001D1921EF1D1184610BD40EA0103024639
:1002E00030B59B0710D14FF0013400E008C208C9B7
:1002F0001D1B9D4315EAC41FF8D013F0FF0102F83F
:10030000011B0DD01B0AF8E711F8013B002B02F886
:10031000013B05D011F8013B002B02F8013BF3D162
:1003200030BD10B5431C02E010F8011B71B181070C
:10033000FAD14FF0013202C88C1A8C4314EAC21170
:10034000F9D0C01A0A0603D0C01E10BDC01A10BDD5
:100350000A0401D0801E10BD0902FCD0401E10BD51
:10036000421E12F8013F002BFBD111F8013B002B7C
:1003700002F8013BF9D17047032A40F2308010F0B7
:10038000030C00F0158011F8013BBCF1020F624430
:1003900098BF11F801CB00F8013B38BF11F8013BC1
:1003A000A2F1040298BF00F801CB38BF00F8013B6E
:1003B00011F0030300F02580083AC0F0088051F8DE
:1003C000043B083A51F804CBA0E80810F5E7121DE9
:1003D0005CBF51F8043B40F8043BAFF30080D20708
:1003E00024BF11F8013B11F801CB48BF11F8012BD4
:1003F00024BF00F8013B00F801CB48BF00F8012BF7
:10040000704710B5203AC0F00B80B1E81850203A80
:10041000A0E81850B1E81850A0E81850BFF4F5AFA4
:100420005FEA027C24BFB1E81850A0E8185044BF2E
:1004300018C918C0BDE810405FEA827C24BF51F89B
:10044000043B40F8043B08BF7047D20728BF31F88F
:10045000023B48BF11F8012B28BF20F8023B48BFE0
:1004600000F8012B70474FF0000200B51346944688
:100470009646203922BFA0E80C50A0E80C50B1F1FC
:100480002001BFF4F7AF090728BFA0E80C5048BF10
:100490000CC05DF804EB890028BF40F8042B08BFAE
:1004A000704748BF20F8022B11F0804F18BF00F8AA
:1004B000012B7047704770477047754600F028F869
:1004C000AE4605006946534620F00700854618B041
:1004D00020B5FFF77FFEBDE820404FF000064FF04B
:1004E00000074FF000084FF0000B21F00701AC4669
:1004F000ACE8C009ACE8C009ACE8C009ACE8C00988
:100500008D4670470446AFF300802046FFF759FE42
:1005100000487047A418002000487047A818002021
:1005200001491820ABBEFEE7260002007047704765
:100530007047000070B51B4C1B4D0E68002376B150
:100540000078432801D0632808D16078012600B9DB
:1005500066702868C82801DB2B6016700B6028685D
:10056000B0F5AF7F02DB2B60052010706868B0F536
:10057000BE7F15DB6B600D4D28680D490840B0F15A
:10058000005F09D100F01CF868686062206228688A
:10059000FFF752FE206A804706A000F0D5FDFEE777
:1005A00070BD00000000002074040020004000081E
:1005B0000000FE2F0A0DD4CBD0D0CAA7B0DC21009A
:1005C00010B500F019F800F05BF8BDE8104000F03D
:1005D000BFB810B500F0F4FD00F056FD00F0C4FB0C
:1005E00000F0EAFC00F015F800F05EF800F0E8F822
:1005F000BDE8104001F002B810B501218C070022BF
:10060000204601F067FA2046BDE81040002101F0C5
:10061000F0B97FB50121084600F0A2FD4FF08045FA
:10062000284601F0F1F90024ADF8064040F2E73029
:10063000ADF80400ADF802404720ADF8000069466F
:10064000284601F051FA1C208DF80C000A208DF884
:100650000D008DF80E4001208DF80F0003A800F06A
:100660001FFD0021284601F03DFA012211462846CF
:1006700001F030FA0121284601F0BBF97FBD0000EE
:1006800010B5084C0021204601F0B3F900212046A6
:1006900001F028FA20460022BDE81040012101F0B7
:1006A00019BA0000000400407FB50121022000F0CB
:1006B00057FD194D284601F0A7F90024ADF8064072
:1006C00042F6CF71ADF80240ADF80410ADF800402D
:1006D0006946284601F008FA1D208DF80C00062016
:1006E0008DF80D008DF80E4001208DF80F0003A845
:1006F00000F0D6FC0021284601F0F4F90022012187
:10070000284601F0E7F90121284601F06FF90021A0
:10071000284601F06EF97FBD0004004010B5084C7A
:100720000021204601F0DEF90121204601F061F9A7
:1007300020460122BDE81040114601F0CBB900006F
:100740000004004001490860704700003C000020A0
:100750002DE9F041154801780129FCD1144C002104
:10076000204601F053FA40F2277500222946204620
:1007700001F0ABFA40F2255600223146204601F046
:10078000A4FA40F2266700223946204601F09DFA7D
:100790002946204601F034FA3946204601F030FA65
:1007A00031462046BDE8F04101F02ABA4000002061
:1007B00000380140014948607047000040000020B7
:1007C000F0B587B0012144F2040000F0E1FC284EAE
:1007D000304601F025FA684601F0DEFA00244FF4B5
:1007E000E1300090ADF808400C20ADF80640ADF8BF
:1007F0000A00ADF804406946304601F07FFA7015F2
:10080000ADF8100001258DF812501820194F8DF801
:10081000130004A9384600F0D9FAA802ADF8100078
:100820008DF8125004208DF8130004A9384600F00A
:10083000CDFA012240F22771304601F046FA01223A
:1008400040F22551304601F040FA25208DF8140081
:100850008DF815508DF816408DF8175005A800F04A
:100860001FFC0121304601F0D1F907B0F0BD0000B6
:1008700000380140000801402DE9F041144F0C46BA
:10088000B968096831B92CB1B4F5836F02D83978E9
:10089000012902D00020BDE8F08110F8011B0D4EA7
:1008A0000546304601F074FA00223A70B868611EBD
:1008B00001608280621E2946801DFFF75DFD0122D6
:1008C00040F22771304601F000FA0120E3E7000012
:1008D0004000002000380140FEE7704770470000EC
:1008E0000E4B1878062811D2DFE800F00305080A3D
:1008F0000C0E0B4800E00B48186109E00A48FBE7C2
:100900000A48F9E70A48F7E70A4818610020187012
:1009100009491B69014A881D184700000000002092
:100920003505000871090008C90E00083D140008CB
:10093000D90A0008B51D00085400002010B504486D
:10094000FFF700FFBDE810400248FFF733BF00008B
:10095000251B00081914000870477047704770473E
:1009600070477047704770477047704770477047CF
:1009700070B50646012008600C46154617A13046A2
:10098000FFF7ABFC25A13046FFF7EAFC29A1304672
:10099000FFF7E6FC2EA13046FFF7E2FC00213046CF
:1009A000FFF765FC3149896900F077FA1FA13046ED
:1009B000FFF7D6FC2EA13046FFF7D2FC31A130461E
:1009C000FFF7CEFC3EA13046FFF7CAFC022028709C
:1009D000304600F0B9FB0020206070BD0D2A2A2AA5
:1009E0002A2A2A2A2A2A2A2A2A2A2A2A2A2A2A2A67
:1009F0002A2A2A2A2A2A2A2A2A2A2A2A2A2A2A2A57
:100A00002A2A2A2A2A2A2A2A2A2A2A2A2A2A2A2A46
:100A10002A2A2A2A2A2A0D0A00000000312EB8FCB0
:100A2000D0C2D3A6D3C3C7F8B3CCD0F2A3BB0D0AB0
:100A300000000000322ECFC2D4D8CEC4BCFEB5BD5B
:100A4000CDE2B2BF464C415348D6D0A3BB0D0A00FD
:100A5000332ED0DEB8C4CDE2B2BF464C415348C4B9
:100A6000ACC8CFB5D8D6B730780000000000002061
:100A7000342ED4CBD0D0415050B3CCD0F2A1A30D62
:100A80000A0000002A2A2A2A2A2A2A2A2A2A2A2A64
:100A90002A2A2A2A2A2A2A2A2A2A2A2A2A2A2A2AB6
:100AA0002A2A2A2A2A2A2A2A2A2A2A2A2A2A2A2AA6
:100AB0002A2A2A2A2A2A2A2A2A2A2A2A2A0D0A00FD
:100AC000C7EBD1A1D4F13A00704770477047704727
:100AD00070477047704700002DE9F0410E4604460C
:100AE00030680021002843D020780027A0F130038F
:100AF000224D092B09D9A0F1610CBCF1050F04D9D5
:100B0000A0F1410CBCF1050F28D86770092B01D862
:100B100019460BE0A0F16102052A01D8573804E01C
:100B2000A0F14102052A01D837380146A869000F13
:100B300005D1A8690001A861A86908441CE010A1BA
:100B40002046FFF7CAFB00212046FFF790FBA9696A
:100B500000F0A3F9204600F0F7FA08E00A2804D0D4
:100B60000D2802D0082805D001E001201070376060
:100B7000BDE8F081A8690009A861E0E70000002055
:100B80000DB5B1C7B0D0B4CDE2B2BF464C41534869
:100B9000C4ACC8CFB5D8D6B7CEAA30780000000014
:100BA00070B50C460E4906461546C86908B9200BB3
:100BB000C861CA696019B0EB023F04D9C869421C18
:100BC000CA6100F0F7FC2A462146304600F0ACFD31
:100BD00020B92A462146304600F058FD012070BD5C
:100BE0000000002070B5054640F6FF76304600F064
:100BF00091F8042813D10A4C206940F002002061CA
:100C00006561206940F040002061304600F082F8C4
:100C1000012804D0216941F6FD721140216170BDA7
:100C20000020024008490420CA68D20701D00120F0
:100C30007047CA68520701D502207047C968C906C3
:100C4000FBD50320704700000020024070470000E1
:100C50000248016941F080010161704700200240B3
:100C600004490A6822F010020A600A6802430A6016
:100C70007047000000200240FFF7EABF70B505464C
:100C80000E460F2000F046F804280FD1084C2069CA
:100C900040F0010020612E800F2000F03BF8012879
:100CA00004D0216941F6FE721140216170BD00003F
:100CB000002002402DE9F0410427002400F01EF836
:100CC0009325074E05E006EBC420FFF78BFF074690
:100CD000641CAC4201D2042FF5D0BDE8F0810000C5
:100CE0000040000804490A6802F038020A600A68F5
:100CF00002430A6070470000002002400348024996
:100D0000416003494160704723016745002002406C
:100D1000AB89EFCD00B50346FFF784FF05E0FF2167
:100D2000491EFDD1FFF77EFF5B1E012803D0002B7B
:100D300000D1052000BD002BF1D1FAE770B50546C2
:100D40000C468E180BE029882046FFF797FF28886D
:100D50002188884201D0002070BDAD1CA41CA64291
:100D6000F1D8012070BD704710B501217C2000F042
:100D70000FFA10484FF6FF7101800021C170014643
:100D80000D4800F023F80B490C4800F01FF8094902
:100D90000B4800F01BF807490A4800F017F805490E
:100DA000094800F013F80021BDE810407C2000F055
:100DB000EFB900003600002000080140000C01409F
:100DC000001001400014014000180140F0B5CC783B
:100DD000002204F00F03E40601D58C7823430C882D
:100DE0004FF00F0C14F0FF0F4FF0010E19D00568F3
:100DF0000E880EFA02F42640A6420ED196000CFA96
:100E000006F7BD4303FA06F63543CE78282E00D107
:100E10004461CE78482E00D10461521C082AE7D3E1
:100E200005600A88FF2A1DD94568002202F10806DC
:100E30000EFA06F40E882640A6420FD196000CFA50
:100E400006F725EA070703FA06F5CE783D43282E74
:100E500000D14461CE78482E00D10461521C082A8A
:100E6000E4D34560F0BD4161704701617047000007
:100E700030B5C3430020074D07E00C5C5C40E4B292
:100E8000401C55F8244084EA13239042F5D3D843FC
:100E900030BD0000A8240008FEE71C2221FA02F35E
:100EA00003F00F030A2B01D2303300E03733121F57
:100EB00012B200F8013B002AF0DA002101707047FD
:100EC00070477047704770472DE9F0410746086842
:100ED0000E46002823D038781B4C032100253128EA
:100EE00006D032280FD033281BD0342816D127E063
:100EF00016486061164860601648E0601648A060B9
:100F0000117016A008E0A069E5616061184865608D
:100F1000C4E90250117017A000F016F93560BDE861
:100F2000F0810420107018A13846FFF7D6F900218F
:100F30003846FFF79CF9A169FFF7AFFF3846EBE7AA
:100F4000157019A0E8E7000000000020004000082C
:100F5000B50C00083D0D0008790C0008310D0AC7DA
:100F6000EBD1A1D4F1D2AAB7A2CBCDCEC4BCFE00A6
:100F7000A10B0008320D0AC7EBD1A1D4F1D2AAB758
:100F8000A2CBCDCEC4BCFE00330D0AB5B1C7B0D0E4
:100F9000B4CDE2B2BF464C415348C4ACC8CFB5D87B
:100FA000D6B7CEAA30780000340D0AD4CBD0D0B357
:100FB000CCD0F22E2E2E000038B50121842000F076
:100FC000E7F84FF40060ADF8000010258DF80350ED
:100FD00002248DF8024069460748FFF7F7FE4FF4F8
:100FE0007070ADF800008DF803508DF8024069462E
:100FF0000248FFF7EBFE38BD00080140001C01402D
:1010000001460D4A0D48062915D2DFE801F0030616
:10101000090B0D104FF4006100E00221104608E0BA
:10102000402106E0802104E04FF4807101E04FF49C
:101030000071FFF718BF704700080140001C014015
:10104000024630B40D4B0E484FF40061062A12D20E
:10105000DFE802F003030507090C184608E0402109
:1010600006E0802104E04FF4807101E04FF400714C
:1010700030BCFFF7FABE30BC7047000000080140EA
:10108000001C0140FEE7704710B500214FF00060E2
:1010900000F04EF8BDE810404FF4407000F03EB84C
:1010A000F0B50F23C278017801264FF0E0273AB35C
:1010B000184A126802F4E062C2F5E062120AC2F154
:1010C0000404D3404278A24084781C401443230196
:1010D0008A0721F00304D20E0F49934065182C684B
:1010E000FF2191408C430B401C432C60007800F0A2
:1010F0001F018E40400907EB8000C0F80061F0BD81
:1011000001F01F008640480907EB8000C0F88061AD
:10111000F0BD00000CED00E000E400E002490843EF
:1011200002490860704700000000FA050CED00E07D
:10113000024A1140014302480160704780FFFF1FCF
:1011400008ED00E07047704770B50546FFF7E9F815
:1011500084B221462846FFF78FFB0128F9D170BDE4
:10116000044A0029D16901D0014300E08143D161E3
:101170007047000000100240044A0029116901D0A4
:10118000014300E0814311617047000000100240FC
:10119000044A0029916901D0014300E08143916133
:1011A0007047000000100240044A0029D16801D0B5
:1011B000014300E08143D16070470000001002400D
:1011C00010B500F031F84FF48034204600F0BEF83E
:1011D00000F006F913490128087022D11020FFF70A
:1011E0003FFD0220FFF77EFD002000F0A5F8002063
:1011F00000F0D2F8002000F0C5F84FF4E0112046CE
:1012000000F0DAF8012000F0D1F8392000F074F88D
:101210000028FAD0022000F0D9F800F085F808285C
:10122000FBD110BD340000200B48016841F00101E2
:1012300001604168094A114041600168084A114053
:101240000160016821F480210160416821F4FE0100
:101250004160002181607047001002400000FFF8EB
:10126000FFFFF6FE204A10B55168204B11F00C012B
:1012700003D0042901D0082901D0036011E051688E
:10128000022301F4701103EB9141536813F4803F82
:1012900002D053689B0301D5154B00E0134B594313
:1012A00001605168134B01F0F00109095C5C0168B1
:1012B000E1404160546804F4E064240A1C5D21FAB2
:1012C00004F48460546804F46054E40A1B5DD9405B
:1012D000C1605268074B02F44042920B1B1F9A5C9C
:1012E000B1FBF2F1016110BD0010024000127A0062
:1012F00000093D00AC280008034600205909094AAE
:1013000001290AD002290AD0516A03F01F020123E1
:1013100093400B4200D0012070471168F5E7116A35
:10132000F3E70000001002400248406800F00C00A3
:101330007047000000100240034A516821F0F0019C
:101340000143516070470000001002400B490A68D9
:1013500022F480320A600A6822F480220A60B0F522
:10136000803F07D0B0F5802F03D1086840F4A0205B
:1013700008607047086840F48030F9E700100240C8
:1013800070470000034A516821F4E0610143516055
:101390007047000000100240034A516821F4605178
:1013A00041EAC000506070470010024001490866E1
:1013B0007047000000004242034B5A68084322F481
:1013C0007C1210435860704700100240034A516875
:1013D00021F00301014351607047000000100240FA
:1013E00030B50B4C40F2FF153120FFF785FF207020
:1013F0006068401C6060207810B96068A842F3D132
:101400003120FFF779FF002800D0012030BD000017
:101410004C00002070477047074A9188B1F5836FF0
:1014200009D21168002906D191885318491C91806E
:101430009871FFF773B9704754000020F0B5ADF212
:101440000C4D04460F46164640F204416846FFF72D
:101450000AF800250DF204436A4639462046CDF8C5
:10146000045400F013FE134CB0F1FF3F18D00128D4
:1014700008D0022803D16068002800D080470DF210
:101480000C4DF0BDE3682BB1DDF80404616982B254
:10149000684698476069DDF8041408446061EEE727
:1014A000A06800B180476560E5600220A5603070EB
:1014B000E5E70000000000202DE9F0478C4690464B
:1014C0000178089A994601290BD002290BD00429EA
:1014D00017D0032915D018290DD04FF0FF30BDE8E3
:1014E000F087802401E04FF48064417891420AD073
:1014F0006FF00100F3E74078182802D06FF0050084
:10150000EDE70020EBE78178D243D2B2914202D0DE
:101510006FF00200E3E7611D8C4502D06FF003001D
:10152000DDE7C11C0023A7B21A46114D0AE011F8ED
:10153000016B521C86EA132692B235F8166086EAD1
:1015400003239BB2BA42F2D300EB0C0131F8021C28
:1015500049BA994202D06FF00400C0E7C11C22468C
:101560004046FEF709FF0120C9F80040B7E7000038
:10157000A82200087047704770477047002901880B
:1015800002D041F0400101E021F0400101807047AC
:1015900010B5074C10212046FFF765FC062000F02F
:1015A000B7F92046BDE810401021FFF75EBC0000EF
:1015B0000008014070B50403FFF7EAFF00F060F88F
:1015C0000D4D10212846FFF74EFC202000F0A0F919
:1015D000C4F3074000F09CF9C4F3072000F098F929
:1015E000E0B200F095F910212846FFF73EFCBDE877
:1015F000704000F045B800000008014000F03AB922
:101600002DE9F041124F05460C461646102138468A
:10161000FFF729FC032000F07BF9C4F3074000F03A
:1016200077F9C4F3072000F073F9E0B200F070F925
:10163000002405E0FF2000F06BF92855641CA4B2DB
:10164000B442F7D33846BDE8F0411021FFF70DBC96
:101650000008014070B5094C10212046FFF703FC3B
:10166000052000F055F9FF2000F052F90546102141
:101670002046FFF7FAFB284670BD00000008014035
:1016800010B5FFF7E7FFC007FBD110BD2DE9F84FFC
:10169000C1F30B060F0BC6F58054804689461546EC
:1016A000A24200D81446DFF87CA04FF4805B3903D7
:1016B0005A461C480091FFF7A3FF002006E03218AD
:1016C0001AF80210FF2903D1401C80B2A042F6D3C1
:1016D000A0421FD23846FFF76DFF0020514605E0BB
:1016E00018F800208319401CCA5480B2A042F7D3D6
:1016F0005A460C48009900F047F8A5420ED0281B26
:10170000A044A1447F1C002685B25C46A542CED8E9
:101710002C46CCE7224649464046ECE70120BDE88E
:10172000F88F0000A40800202DE9F0410746C8B258
:10173000C0F580740E461546A24200D814464FF4F8
:10174000807822463146384600F03EF8224631463F
:101750000C48FFF755FF22460A493846FEF791FD2F
:1017600010B10020BDE8F081A54208D0281B274415
:10177000264485B24446A542E3D82C46E1E7012041
:10178000F0E70000A40800202DE9F0410746C8B2A8
:10179000C0F580740E461546A24200D814464FF498
:1017A000807822463146384600F00EF8A54208D02F
:1017B000281B2744264485B24446A542F1D82C462E
:1017C000EFE7BDE8F08100002DE9F04105460C4649
:1017D0001646FFF7DDFE124F10213846FFF743FB98
:1017E000022000F095F8C4F3074000F091F8C4F32C
:1017F000072000F08DF8E0B200F08AF8002404E041
:10180000285D00F085F8641CA4B2B442F8D310211E
:101810003846FFF72AFBBDE8F041FFF731BF000073
:10182000000801400246002012890A4200D001202F
:101830007047808970478181704730B502884C8835
:1018400002F441530A88CD8822438C882C432243DA
:101850000C8922434C8922438C892243CC89224320
:101860001A430280828B22F400628283098A0182F9
:1018700030BD000030B587B0012141F20400FFF710
:1018800087FCE020ADF8140018248DF817400320E1
:101890001D4D8DF8160005A92846FFF797FA10216F
:1018A000ADF814108DF8171005A92846FFF78EFA29
:1018B00010212846FFF7D9FA0020ADF80000ADF856
:1018C00004004FF48271ADF802100221ADF8061049
:1018D000ADF80C400121ADF80810ADF80E0049023A
:1018E00007200A4CADF80A10ADF8100069462046F2
:1018F000FFF7A3FF01212046FFF740FEFF2000F085
:1019000007F807B030BD000000080140003001407A
:101910002DE9F04107460025124E04E02C46681CD4
:10192000C5B2C82C10D802213046FFF77BFF002833
:10193000F4D039463046FFF77EFF002507E02C46FD
:10194000681CC5B2C82C02D90020BDE8F081012175
:101950003046FFF767FF0028F1D03046FFF769FFF8
:10196000C0B2F2E7003001407047704770477047DF
:10197000704770477047000070B501218D07002443
:10198000284600F09BF801280DD10121284600F0DF
:101990002DF8054850F82410491C40F82410641C08
:1019A000A4B2042CF6D370BD7404002010B5094C09
:1019B0000121204600F082F801280AD101212046A9
:1019C00000F014F804480068002802D0BDE8104078
:1019D000004710BD000400403C00002070477047E5
:1019E000704770477047704770477047C94301821E
:1019F00070470029018802D041F0010102E040F265
:101A0000FE321140018070472A4A10B5811A131521
:101A1000D41490423BD010DCB0F1804F22D0264944
:101A2000401826D098422BD0A04241D10121082055
:101A3000FFF7A2FB0021082036E099422ED0B1F535
:101A40008E3F0DD0B1F5923F32D101214C0320469B
:101A5000FFF7AAFB2046BDE810400021FFF7A4BB1A
:101A60000121F4E701210846FFF786FB0021012050
:101A70001AE001210220FFF77FFB0021022013E082
:101A800001210420FFF778FB002104200CE0012154
:101A90001020FFF771FB0021102005E0012120201C
:101AA000FFF76AFB00212020BDE81040FFF764BB70
:101AB00010BD00000010004000FCFFBF02460020E7
:101AC000138A92890B4202EA010202D0002A00D056
:101AD00001207047002A828901D00A4300E08A432E
:101AE0008281704781847047028802F08F020280F1
:101AF000CA884B881A4303881A4302808A888285E1
:101B00000A88028501228282044A904202D0044A55
:101B1000904201D1097A018670470000002C0140F3
:101B20000034014010B5FEF7ABFD03488188016029
:101B30000021818010BD00005400002070477047D4
:101B40002DE9F0412B4D40F227773946284600F029
:101B50009DF8294C40F22666012814D031462846CB
:101B600000F094F878B33146284600F049F8002296
:101B70003146284600F0A9F8A1680020086001203D
:101B80002070BDE8F0813946284600F039F8A06899
:101B9000016861B18188831D4A1C8280C95C284626
:101BA00000F0F6F8A0680168491E0160E9E700222C
:101BB0003946284600F089F831462846BDE8F0410C
:101BC000012200F082B840F225563146284600F046
:101BD0005DF80028D5D03146284600F011F8284697
:101BE00000F0D2F86168C0B20029CAD0BDE8F04167
:101BF000084700000038014040000020704770474F
:101C00000A0A01219140C943018070470029818956
:101C100002D041F4005101E021F40051818170476C
:101C2000184A10B5811A131590421BD007DC1649CB
:101C3000401814D0984223D101218C0417E0994216
:101C400013D0B1F56C4F1BD101218C032046FFF757
:101C5000ABFA2046BDE810400021FFF7A5BA0121EC
:101C60004C0404E00121CC0401E001210C052046D4
:101C7000FFF782FA2046BDE810400021FFF77CBA4A
:101C800010BD0000004C004000BCFFBF70B501F06B
:101C90001F0601250024C1F3421305FA06F2012BA9
:101CA0000FD0022B0FD0838A4FEA112100881342F4
:101CB00005FA01F500EA050001D000B10124204633
:101CC00070BD8389F0E7038AEEE710B5C1F34213D4
:101CD00001F01F040121A140012B07D0022B07D0E6
:101CE0001430002A026805D00A4304E00C30F8E7FB
:101CF0001030F6E78A43026010BD000030B504469C
:101D0000008A85B00D464CF6FF710840E988014312
:101D10002182A1894EF6F3100140A8882A89104338
:101D20006A890A431043A081A08A4FF6FF41084008
:101D3000A9890143A1826846FFF794FA11488442B9
:101D400001D1039800E00298642200EBC00101EB8E
:101D5000001029686FF018058900B0FBF1F0B0FBA6
:101D6000F2F109010B096B4300EB8300322303EB13
:101D70000010B0FBF2F000F00F000843208105B026
:101D800030BD0000003801408088C0F30800704773
:101D9000C1F30801818070474FF4165101600021A2
:101DA0008180C18001810C2242818181704770470E
:101DB000704770472DE9F74FADF58B6D00264FF456
:101DC00080616846FEF74FFB4FF4401128220DF565
:101DD0008060CDF85014FFF713FCDDF80004B14625
:101DE00001287DD171A0FFF7AFF9DDF8180476491D
:101DF000884276D2DDF85C0401210160DDF81854D8
:101E00000024DFF8C8A10FE04FF480673A4604EBE6
:101E10000A016846FFF7F4FB3A4669463046FFF789
:101E200027F8064604F58064A5F580608442EBD966
:101E3000AC420CD24FF4806204EB0A016846FFF713
:101E4000DFFB2A1B69463046FFF712F80646DDF82D
:101E50001C04B0427FD15EA0FFF776F9FEF72AFF9F
:101E600061A0FFF771F9DDF81884DFF898B1DBF8AD
:101E70000800002801DBCBF8089000275AE04FF457
:101E80008064224607EB0A01DDF85804FFF7B8FB2F
:101E90005D4822463918DDF85804FEF74FFFDBF89D
:101EA00008005946C82843DBC1F8089064207843ED
:101EB000B0FBF8F085B255A1DDF85804FEF70DFA35
:101EC0000021DDF85804FEF7D2F906460024282246
:101ED00050490DF58560FEF794FA0DF5856201E035
:101EE00057E03AE052F82400A84203D8641C24B218
:101EF0000A2CF4DB0A2C0BD1092409E052F8241037
:101F0000B5FBF1F000F1300301FB105506F8013B81
:101F10002000A4F1010424B2F0D186F800903EA183
:101F2000DDF85804FEF71CFADDF85804FFF70CF949
:101F300007F580674745A2D3FEF79EFE38A0FFF75E
:101F400003F9002528210DF58060FEF78CFA4E4636
:101F50003D4F04E0FFE73DA0F1E742A0EFE7FE615F
:101F600028220DF58060DDF85014FEF719FE2822B6
:101F70000DF58060DDF85014FFF742FBDDF800043A
:101F8000012803D12C466D1C0A2CE8D33DA0FFF795
:101F9000DBF8DDF85C14C1F80090DDF8601481F81E
:101FA00000900DF2644DBDE8F08F00000D0AB7A25D
:101FB000CFD6B8FCD0C2B0FCA3ACBFAACABCD0A7D5
:101FC000D1E92E2E2E000000E09304000010300016
:101FD0000D0AD0A7D1E9B3C9B9A6A3ACBFAACABCA0
:101FE000B2C1B3FD2E2E2E000D0AB2C1B3FDB3C98E
:101FF000B9A6A3ACBFAACABCB8FCD0C22E2E2E0D67
:102000000A00000074040020004000080DD2D4B87B
:10201000FCD0C20080220008252E2E2E00000000D9
:102020000DD2D4B8FCD0C2313030252E2E2E0D0A60
:10203000B8FCD0C2CDEAB3C9A3ACBFAACABCD4CB4A
:10204000D0D02E2E2E000000000000200D0AD0A7B8
:10205000D1E9CAA7B0DCA3ACCDCBB3F6B8FCD0C2F3
:10206000A1A300000D0AB8FCD0C2B0FCB3A4B6C84E
:10207000D2ECB3A3A3ACCDCBB3F6B8FCD0C2A1A332
:10208000000000000A0D0000FEE770472DE9FF4F39
:102090005A4C824620460D46002622784068584910
:1020A00081B04FF0010B4FF47A78C0B23746052A61
:1020B0000DD2DFE802F0030D45548E006760A76083
:1020C000677084F800B0C86800287EDBCF607CE0D1
:1020D0008946C968414509DBC9F80C70474A474938
:1020E0000832432000F08EF827706EE0296800293E
:1020F0006BD000905046039AFFF7DEF940B22F6094
:1021000078B1012816D10398C07838B10220207028
:1021100006466068401C6060677050E004202070D4
:102120004DE0607808B1676040E0344A33490832D6
:1021300015203FE0314A67700832304915202CE005
:1021400003202E4A207008322C49062000F05AF84D
:102150002A4A2A490832432000F054F835E08946DB
:10216000C968414504DBC9F80C70042020702CE0DC
:10217000296851B300905046039AFFF79DF940B289
:102180002F6068B10128D5D160681C4A401C60608E
:102190000126677008321949062000F033F80EE076
:1021A00060780028C1D0676084F800B0134A1349F2
:1021B0000832062000F026F86078401C6070D9F8DC
:1021C0000C104846002900DBC76005B03046BDE86A
:1021D000F08F0A4A09490832062000F013F8074A2E
:1021E00006490832182000F00DF8044A0349083265
:1021F000182000F007F84FF0FF3675E728000020A0
:102200007404002037B50D46144601216846FEF7D8
:1022100033FB0128F9D19DF80000062809D01528C4
:1022200006D12068401C2060052801DD04202870AC
:102230003EBD002020603EBD0024FEF7CAF9FEF737
:102240007DFB4FF47A770026084DFEF749FB28689E
:10225000B842FADB2E604FF005001CB1FEF7F0FE2D
:102260000024F2E7FEF7CCFE0124EEE77404002020
:1022700010B5FEF751F94FF00001016010BD0000EC
:10228000010000000A00000064000000E8030000F4
:1022900010270000A086010040420F0080969800A1
:1022A00000E1F50500CA9A3B00002110422063308E
:1022B0008440A550C660E770088129914AA16BB19E
:1022C0008CC1ADD1CEE1EFF1311210027332522246
:1022D000B5529442F772D662399318837BB35AA3EE
:1022E000BDD39CC3FFF3DEE3622443342004011416
:1022F000E664C774A44485546AA54BB5288509953E
:10230000EEE5CFF5ACC58DD55336722611163006E5
:10231000D776F6669556B4465BB77AA7199738878D
:10232000DFF7FEE79DD7BCC7C448E5588668A778A5
:102330004008611802282338CCC9EDD98EE9AFF9DD
:10234000488969990AA92BB9F55AD44AB77A966A85
:10235000711A500A333A122AFDDBDCCBBFFB9EEB2D
:10236000799B588B3BBB1AABA66C877CE44CC55C55
:10237000222C033C600C411CAEED8FFDECCDCDDD7D
:102380002AAD0BBD688D499D977EB66ED55EF44E25
:10239000133E322E511E700E9FFFBEEFDDDFFCCFCD
:1023A0001BBF3AAF599F788F8891A981CAB1EBA121
:1023B0000CD12DC14EF16FE18010A100C230E3209D
:1023C0000450254046706760B9839893FBA3DAB345
:1023D0003DC31CD37FE35EF3B1029012F322D232ED
:1023E0003542145277625672EAB5CBA5A895898515
:1023F0006EF54FE52CD50DC5E234C324A01481043D
:102400006674476424540544DBA7FAB79987B897E4
:102410005FE77EF71DC73CD7D326F2369106B0168C
:1024200057667676154634564CD96DC90EF92FE9A4
:10243000C899E9898AB9ABA94458654806782768DC
:10244000C018E1088238A3287DCB5CDB3FEB1EFB84
:10245000F98BD89BBBAB9ABB754A545A376A167A2C
:10246000F10AD01AB32A923A2EFD0FED6CDD4DCD54
:10247000AABD8BADE89DC98D267C076C645C454C7C
:10248000A23C832CE01CC10C1FEF3EFF5DCF7CDF24
:102490009BAFBABFD98FF89F176E367E554E745ECC
:1024A000932EB23ED10EF01E00000000963007774A
:1024B0002C610EEEBA51099919C46D078FF46A7038
:1024C00035A563E9A395649E3288DB0EA4B8DC7958
:1024D0001EE9D5E088D9D2972B4CB609BD7CB17ED8
:1024E000072DB8E7911DBF906410B71DF220B06AA8
:1024F0004871B9F3DE41BE847DD4DA1AEBE4DD6DB8
:1025000051B5D4F4C785D38356986C13C0A86B64B7
:102510007AF962FDECC9658A4F5C0114D96C0663D7
:10252000633D0FFAF50D088DC8206E3B5E10694CB7
:10253000E44160D5727167A2D1E4033C47D4044BF7
:10254000FD850DD26BB50AA5FAA8B5356C98B242D7
:10255000D6C9BBDB40F9BCACE36CD832755CDF4557
:10256000CF0DD6DC593DD1ABAC30D9263A00DE5187
:102570008051D7C81661D0BFB5F4B42123C4B35677
:102580009995BACF0FA5BDB89EB802280888055FF7
:10259000B2D90CC624E90BB1877C6F2F114C685857
:1025A000AB1D61C13D2D66B69041DC760671DB0145
:1025B000BC20D2982A10D5EF8985B1711FB5B60617
:1025C000A5E4BF9F33D4B8E8A2C9077834F9000F57
:1025D0008EA8099618980EE1BB0D6A7F2D3D6D08F7
:1025E000976C6491015C63E6F4516B6B62616C1CE7
:1025F000D83065854E0062F2ED95066C7BA5011B17
:10260000C1F4088257C40FF5C6D9B06550E9B712B6
:10261000EAB8BE8B7C88B9FCDF1DDD62492DDA1576
:10262000F37CD38C654CD4FB5861B24DCE51B53A96
:102630007400BCA3E230BBD441A5DF4AD795D83D96
:102640006DC4D1A4FBF4D6D36AE96943FCD96E34D6
:10265000468867ADD0B860DA732D0444E51D0333B6
:102660005F4C0AAAC97C0DDD3C710550AA410227C6
:1026700010100BBE86200CC925B56857B3856F2096
:1026800009D466B99FE461CE0EF9DE5E98C9D929F6
:102690002298D0B0B4A8D7C7173DB359810DB42E36
:1026A0003B5CBDB7AD6CBAC02083B8EDB6B3BF9A82
:1026B0000CE2B6039AD2B1743947D5EAAF77D29D0E
:1026C0001526DB048316DC73120B63E3843B6494EE
:1026D0003E6A6D0DA85A6A7A0BCF0EE49DFF0993EE
:1026E00027AE000AB19E077D44930FF0D2A308875E
:1026F00068F2011EFEC206695D5762F7CB6765800E
:1027000071366C19E7066B6E761BD4FEE02BD3890D
:102710005A7ADA10CC4ADD676FDFB9F9F9EFBE8E6D
:1027200043BEB717D58EB060E8A3D6D67E93D1A1AD
:10273000C4C2D83852F2DF4FF167BBD16757BCA68D
:10274000DD06B53F4B36B248DA2B0DD84C1B0AAF2D
:10275000F64A0336607A0441C3EF60DF55DF67A8AD
:10276000EF8E6E3179BE69468CB361CB1A8366BC3D
:10277000A0D26F2536E2685295770CCC03470BBB8D
:10278000B91602222F260555BE3BBAC5280BBDB28D
:10279000925AB42B046AB35CA7FFD7C231CFD0B52D
:1027A0008B9ED92C1DAEDE5BB0C2649B26F263EC1F
:1027B0009CA36A750A936D02A906099C3F360EEB2D
:1027C0008567077213570005824ABF95147AB8E2ED
:1027D000AE2BB17B381BB60C9B8ED2920DBED5E5CD
:1027E000B7EFDC7C21DFDB0BD4D2D38642E2D4F11D
:1027F000F8B3DD686E83DA1FCD16BE815B26B9F6AD
:10280000E177B06F7747B718E65A0888706A0FFF0C
:10281000CA3B06665C0B0111FF9E658F69AE62F8CC
:10282000D3FF6B6145CF6C1678E20AA0EED20DD7CC
:102830005483044EC2B30339612667A7F71660D0EC
:102840004D476949DB776E3E4A6AD1AEDC5AD6D92C
:10285000660BDF40F03BD83753AEBCA9C59EBBDE4C
:102860007FCFB247E9FFB5301CF2BDBD8AC2BACAFC
:102870003093B353A6A3B4240536D0BA9306D7CD6C
:102880002957DE54BF67D9232E7A66B3B84A61C48C
:10289000021B685D942B6F2A37BE0BB4A18E0CC34C
:1028A0001BDF055A8DEF022D020406080000000010
:1028B000010203040102030406070809DC280008DA
:1028C00000000020540000006C01000830290008BE
:1028D00054000020B420000088010008000000001F
:1028E00000000000000000000000000000000000E8
:1028F0000040000800000000000000000000000090
:1029000000000000000000000000000000000000C7
:1029100000000000000000000000000001000000B6
:1029200000000000840400200000000000000000FF
:0400000508000131BD
:00000001FF
